:100000000C94D9000C94F6000C94F6000C94F600B5
:100010000C94F6000C94F6000C94F6000C94F60088
:100020000C94F6000C94F6000C94F6000C94F60078
:100030000C94F6000C94F6000C94F6000C94F60068
:100040000C94F6000C94F6000C94F6000C94F60058
:100050000C94F6000C94F6000C94F6000C94F60048
:100060000C94F6000C94F6004552524F522C20741A
:100070007279696E6720746F207772697465206F7A
:1000800075747369646520617661696C61626C6521
:1000900020454550524F4D2073706163653A2030C2
:1000A00078253032782D3078253032782028307815
:1000B00030302D307838302076616C696429210A1F
:1000C00000457261736520636F6D706C6574650ABD
:1000D00000203E2045726173696E672025303258DA
:1000E0002D253032580A0045726173696E672045CC
:1000F0004550524F4D0A004E2F4120253032580AAC
:10010000004D5220444154412B522C204E414B0A69
:10011000004D5220444154412B522C2041434B0A64
:10012000004D5220534C412B522C204E414B0A0083
:100130004D5220534C412B522C2041434B0A004D31
:100140005420444154412B572C204E414B0A004D22
:100150005420444154412B572C2041434B0A004D1D
:100160005420534C412B572C204E414B0A004D54E8
:1001700020534C412B572C2041434B0A004E4F41FA
:1001800052422F4E414B0A00524553544152540A99
:100190000053544152540A00207C202573207C0ACD
:1001A000002530325820002530345820207C202073
:1001B000000011241FBECFEFD8E0DEBFCDBF11E09D
:1001C000A0E0B1E0EEE3F4E102C005900D92A434AA
:1001D000B107D9F721E0A4E4B1E001C01D92AD342C
:1001E000B207E1F70E9437050C941D0A0C94000039
:1001F000CF93C82F8A3029F460E070E08DE00E9430
:10020000F8008091C00085FFFCCFC093C60080E05D
:1002100090E0CF9108951092C50089E18093C400C9
:100220001092C00088E18093C10086E08093C200F4
:1002300080E091E090934A01809349010895809174
:10024000C00087FFFCCF8091C60008950895ECE7B9
:10025000F0E080E68083808180838BE880937A0061
:10026000089580934401089580914401089508956C
:1002700089E48093B8000895803379F188F4883157
:1002800031F138F48830E9F08031B1F588E891E057
:100290002CC08032F9F0883279F58FE491E025C0E6
:1002A0008834F1F038F4883379F0803429F580E32C
:1002B00091E01BC08035B9F08835F1F481E091E020
:1002C00014C081E991E011C08DE791E00EC08EE687
:1002D00091E00BC08FE591E008C08FE391E005C08D
:1002E00081E291E002C081E191E09F938F930E94AF
:1002F0002F070F900F9008951F928F9387EF90E034
:100300009F938F930E942F070F900F900F900F9045
:10031000089584EA8093BC008091BC0087FFFCCFE5
:10032000089584E98093BC0087EC90E00197F1F791
:1003300000C0000008958091B900887F0895862B41
:100340008093BB0084E88093BC008091BC0087FF51
:10035000FCCF08958093BB0084E88093BC0080911B
:10036000BC0087FFFCCF08950E94890160E080EA0D
:100370000E949F018091B900887F8831A9F7089574
:10038000CF93C82F0E94890160E080EA0E949F01FC
:100390008C2F0E94AA010E94890161E080EA0E94DC
:1003A0009F0184E88093BC008091BC0087FFFCCF54
:1003B000C091BB000E9491018C2FCF910895CF93E3
:1003C000DF93D82FC62F0E94890160E080EA0E9447
:1003D0009F018D2F0E94AA018C2F0E94AA010E94CA
:1003E0009101DF91CF910C94B401EF92FF920F93A2
:1003F0001F93CF93DF937C01C62F8A010E9489014E
:1004000060E080EA0E949F018C2F0E94AA01E70110
:100410000E0D1F1DC017D10721F089910E94AA015E
:10042000F9CF0E949101DF91CF911F910F91FF9021
:10043000EF900C94B401FF920F931F93CF93DF932F
:10044000182F092FF62EEA010E94890160E080EA48
:100450000E949F018F2D0E94AA010E94890161E0E4
:1004600080EA0E949F01212FE12FF02F34EC219789
:100470008E2F821BDF013093BC009091BC0097FF50
:10048000FCCF9091BB00919390E08C179D0780F377
:1004900084E88093BC008091BC0087FFFCCF8091F2
:1004A000BB0011968C93DF91CF911F910F91FF901C
:1004B0000C949101EF92FF920F931F93CF93DF93D0
:1004C000CDB7DEB728970FB6F894DEBF0FBECDBF0D
:1004D00088E0EEE0F1E0DE01119601900D928A9540
:1004E000E1F787EE90E09F938F930E942F070F9084
:1004F0000F9000E010E081EDE82E80E0F82EC801BA
:1005000007969F938F931F930F93FF92EF920E94F2
:100510002F0748E050E0602FCE0101960E94F501C0
:10052000085F1F4F0F900F900F900F900F900F903C
:100530000038110521F781EC90E09F938F930E9482
:100540002F070F900F9028960FB6F894DEBF0FBEBE
:10055000CDBFDF91CF911F910F91FF90EF90089544
:100560009F92AF92BF92CF92DF92EF92FF920F9342
:100570001F93CF93DF935C01962E8A017A01E60EDA
:10058000F11C80E8E816F10420F488E0C82ED12C94
:1005900025C0FF92EF921F926F9388E690E09F93A1
:1005A0008F930E942F070F900F900F900F900F9036
:1005B0000F901DC0892D8770B9F0E601C81BD109C5
:1005C0000C171D0708F4E801AE01692DC5010E9452
:1005D000F5019C0EAC0EBD1E0C1B1D0B892D90E071
:1005E0008E159F0538F303C0C8E0D0E0E9CFDF9156
:1005F000CF911F910F91FF90EF90DF90CF90BF9020
:10060000AF909F9008952F923F924F925F926F927A
:100610007F928F929F92AF92BF92CF92DF92EF9292
:10062000FF920F931F93CF93DF93CDB7DEB7299738
:100630000FB6F894DEBF0FBECDBF4C015B0189E061
:10064000EBE3F1E09E012F5F3F4F7901D90101906B
:100650000D928A95E1F700E010E087EA282E81E00C
:10066000382E91EA492E91E0592E28E9622E21E098
:10067000722E1F930F933F922F920E942F076401B7
:10068000C00ED11E0F900F900F900F90D6018C913D
:100690001F928F935F924F920E942F07F801E7708D
:1006A000FF27D6018D916D0190EE980F0F900F905E
:1006B0000F900F909F3508F08EE2EE0DFF1D8083A6
:1006C0000F5F1F4FC80187709927892B31F5FF9263
:1006D000EF927F926F920E942F070F900F900F90D2
:1006E0000F900A151B0528F229960FB6F894DEBF65
:1006F0000FBECDBFDF91CF911F910F91FF90EF9073
:10070000DF90CF90BF90AF909F908F907F906F9031
:100710005F904F903F902F9008950A151B0508F4A5
:10072000B5CFD5CF2FEF87EA91E62150804090409A
:10073000E1F700C0000010924601109245010895B3
:10074000809145019091460108958F929F92BF92AA
:10075000CF92DF92EF92FF920F931F93CF93DF938D
:1007600000D000D01F92CDB7DEB7FE01319625E054
:10077000DF011D922A95E9F710924601109245017A
:100780005E98569ABFEF20E732E0B15020403040EB
:10079000E1F700C000005E9A56982FE14E9B0CC016
:1007A0004AE04A95F1F700C02150C1F724E030E05B
:1007B0003093460120934501209145013091460137
:1007C000232BF1F423E34E990CC05AE05A95F1F72C
:1007D00000C02150C1F724E030E03093460120935F
:1007E000450123E34E9B0CC0AAE0AA95F1F700C097
:1007F0002150C1F724E030E03093460120934501B9
:100800002091450130914601232B09F049C030E089
:10081000C12CD12C7601C39444E0842E912C27E086
:1008200044E24E990CC0BAE0BA95F1F700C04150CD
:10083000C1F790924601809245012FEF35E040913B
:10084000450150914601452B21F54AEB4A95F1F7B8
:1008500000C04E9B11C08F01030F111DD801BC9029
:10086000B701A601022E04C0440F551F661F771F53
:100870000A94D2F74B294C9343E34E9B0AC0BAE04B
:10088000BA95F1F700C04150C1F7909246018092AD
:100890004501215027FFC4CF3F5F353008F4BFCF5B
:1008A0002091450130914601232BC9F439812A81D9
:1008B000230F3B81230F3C81230F3D81231739F008
:1008C00083E090E0909346018093450108C0DC01ED
:1008D000CE01059621912D93E817F907D9F70F90CE
:1008E0000F900F900F900F90DF91CF911F910F916C
:1008F000FF90EF90DF90CF90BF909F908F900895E2
:100900008F929F92AF92BF92CF92DF92EF92FF921F
:100910000F931F93CF93DF9300D000D0CDB7DEB7F6
:100920008C015B0119821A821B821C82CE01019606
:100930000E94A5038091450190914601892B09F001
:100940004DC06B8170E080E090E00E94F505F801F9
:100950006083718382839383698170E080E090E09B
:100960000E94F5056B017C01F50160837183828330
:100970009383F80180809180A280B38020E030E0F2
:10098000A901C501B4010E94F00587FD0AC020E05D
:1009900030E048E452E4C501B4010E94A7061816ED
:1009A0001CF482E090E016C020E030E040EA51E420
:1009B000C701B6010E94F00587FD0AC020E030E0C3
:1009C00044EB52E4C701B6010E94A706181634F49E
:1009D00081E090E090934601809345010F900F9045
:1009E0000F900F90DF91CF911F910F91FF90EF909B
:1009F000DF90CF90BF90AF909F908F900895CF934E
:100A0000DF9300D000D0CDB7DEB7BE016F5F7F4F60
:100A10000E9480040F900F900F900F90DF91CF9164
:100A20000895CF93DF9300D000D0CDB7DEB7BC01DF
:100A3000CE0101960E9480040F900F900F900F90AE
:100A4000DF91CF91089526E636E646EE5FE30E94F9
:100A5000AC0620E030E040E052E40E9484050895B6
:100A600023E333E948E853E40E9484050895CF93D3
:100A7000DF93CDB7DEB728970FB6F894DEBF0FBE71
:100A8000CDBF86E191E09F938F930E9419070E944A
:100A900092030F900F907E0125E0E20EF11CCE0133
:100AA00001966C018EE1882E81E0982E0CE211E017
:100AB00090E3A92E91E0B92EB601C7010E948004EF
:100AC0009F928F920E941907FF92EF921F930F93AC
:100AD0000E941907BF92AF920E941907DF92CF922E
:100AE0001F930F930E9419079FEF23ED80E391500E
:100AF00020408040E1F700C000000FB6F894DEBF50
:100B00000FBECDBFD9CF5058BB27AA270E949B0547
:100B10000C946D060E945F0638F00E94660620F075
:100B200039F49F3F19F426F40C945C060EF4E0951A
:100B3000E7FB0C945606E92F0E947E0658F3BA177D
:100B4000620773078407950720F079F4A6F50C94E3
:100B5000A0060EF4E0950B2EBA2FA02D0B01B901C3
:100B600090010C01CA01A0011124FF27591B99F023
:100B7000593F50F4503E68F11A16F040A22F232F2F
:100B8000342F4427585FF3CF469537952795A7957F
:100B9000F0405395C9F77EF41F16BA0B620B730B26
:100BA000840BBAF09150A1F0FF0FBB1F661F771F97
:100BB000881FC2F70EC0BA0F621F731F841F48F44C
:100BC000879577956795B795F7959E3F08F0B0CFD5
:100BD0009395880F08F09927EE0F979587950895BC
:100BE0000E94320608F481E00895E89409C097FB5A
:100BF0003EF490958095709561957F4F8F4F9F4FF4
:100C00009923A9F0F92F96E9BB279395F695879537
:100C100077956795B795F111F8CFFAF4BB0F11F4FA
:100C200060FF1BC06F5F7F4F8F4F9F4F16C08823A1
:100C300011F096E911C0772321F09EE8872F762FD7
:100C400005C0662371F096E8862F70E060E02AF018
:100C50009A95660F771F881FDAF7880F9695879504
:100C600097F90895990F0008550FAA0BE0E8FEEFD9
:100C700016161706E807F907C0F012161306E40760
:100C8000F50798F0621B730B840B950B39F40A2659
:100C900061F0232B242B252B21F408950A2609F437
:100CA000A140A6958FEF811D811D089597F99F673B
:100CB00080E870E060E008959FEF80EC08950024E4
:100CC0000A941616170618060906089500240A94B1
:100CD00012161306140605060895092E0394000C37
:100CE00011F4882352F0BB0F40F4BF2B11F460FFC6
:100CF00004C06F5F7F4F8F4F9F4F089557FD9058EF
:100D0000440F551F59F05F3F71F04795880F97FBCF
:100D1000991F61F09F3F79F0879508951216130689
:100D20001406551FF2CF4695F1DF08C016161706B8
:100D30001806991FF1CF86957105610508940895ED
:100D4000E894BB2766277727CB0197F908950E947F
:100D5000320608F48FEF08950E94BF060C946D06CA
:100D60000E945F0638F00E94660620F0952311F07D
:100D70000C9456060C945C0611240C94A1060E9457
:100D80007E0670F3959FC1F3950F50E0551F629F4B
:100D9000F001729FBB27F00DB11D639FAA27F00DD4
:100DA000B11DAA1F649F6627B00DA11D661F829FFB
:100DB0002227B00DA11D621F739FB00DA11D621FE0
:100DC000839FA00D611D221F749F3327A00D611DFD
:100DD000231F849F600D211D822F762F6A2F1124DF
:100DE0009F5750409AF0F1F088234AF0EE0FFF1F12
:100DF000BB1F661F771F881F91505040A9F79E3F69
:100E0000510580F00C9456060C94A1065F3FE4F364
:100E1000983ED4F3869577956795B795F795E795BE
:100E20009F5FC1F7FE2B880F911D9695879597F9C7
:100E30000895A0E0B0E0EFE1F7E00C94F609AE0110
:100E40004B5F5F4FFA0161917191AF018091490150
:100E500090914A010E945507E2E00C94120AA0E02A
:100E6000B0E0E5E3F7E00C94F409AE01495F5F4FB1
:100E7000DA016D917D91AD0107E411E0F801828105
:100E80009381DC0113962C911397286013962C9371
:100E90000E945507D8011296ED91FC91139723817A
:100EA000277F2383E4E00C94100AABE0B0E0EBE58D
:100EB000F7E00C94E6096C017B018A01FC011782C2
:100EC0001682838181FFCCC1CE0101963C01F601DF
:100ED0009381F70193FD859193FF81917F01882391
:100EE00009F4BAC1853239F493FD859193FF81915C
:100EF0007F01853229F4B60190E00E944C09E7CFCA
:100F0000912C212C312CFFE1F315D8F08B3279F0A4
:100F100038F4803279F08332A1F4232D20611DC092
:100F20008D3261F0803369F4232D216016C0832D4A
:100F30008260382EE32DE4603E2E2AC0F32DF86047
:100F40001DC037FC2DC020ED280F2A3040F08E3216
:100F5000B9F436FC81C1232D2064322E19C036FE2F
:100F600006C08AE0989E200D1124922E11C0EAE05E
:100F70002E9E200D1124222EF32DF0623F2E08C04C
:100F80008C3621F4832D8068382E02C0883641F4D7
:100F9000F70193FD859193FF81917F018111B3CF7B
:100FA000982F9F7D9554933028F40C5F1F4F9FE33B
:100FB00099830DC0833631F0833771F0833509F0A2
:100FC00059C021C0F801808189830E5F1F4F88249A
:100FD0008394912C530113C02801F2E04F0E511C51
:100FE000F801A080B18036FE03C0692D70E002C018
:100FF0006FEF7FEFC5010E9441094C018201F32D83
:10100000FF773F2E16C0280122E0420E511CF80146
:10101000A080B18036FE03C0692D70E002C06FEF82
:101020007FEFC5010E9436094C01F32DF0683F2E79
:10103000820133FC1BC0822D90E088169906B0F423
:10104000B60180E290E00E944C092A94F4CFF501A9
:1010500037FC859137FE81915F01B60190E00E94D7
:101060004C0921102A9421E0821A910881149104DC
:1010700071F7E8C0843611F0893641F5F80137FE82
:1010800007C060817181828193810C5F1F4F08C00E
:1010900060817181072E000C880B990B0E5F1F4F2A
:1010A000F32DFF763F2E97FF09C0909580957095A0
:1010B00061957F4F8F4F9F4FF0683F2E2AE030E0C1
:1010C000A3010E948809882E861845C0853731F40F
:1010D000232D2F7EB22E2AE030E025C0932D997F5C
:1010E000B92E8F36C1F018F4883579F0B5C0803745
:1010F00019F0883721F0B0C0E92FE061BE2EB4FEB0
:101100000DC0FB2DF460BF2E09C034FE0AC0292F8C
:101110002660B22E06C028E030E005C020E130E0B5
:1011200002C020E132E0F801B7FE07C060817181A2
:10113000828193810C5F1F4F06C06081718180E0C6
:1011400090E00E5F1F4FA3010E948809882E861829
:10115000FB2DFF773F2E36FE0DC0232D2E7FA22EB6
:10116000891458F434FE0BC032FC09C0832D8E7EE6
:10117000A82E05C0B82CA32C03C0B82C01C0B92CD4
:10118000A4FE0FC0FE01E80DF11D8081803321F423
:101190009A2D997EA92E09C0A2FE06C0B394B394DD
:1011A00004C08A2D867809F0B394A3FC11C0A0FE78
:1011B00006C0B21488F4280C922C9B180EC0B214EE
:1011C00060F4B60180E290E00E944C09B394F7CF3E
:1011D000B21418F42B1802C0982C212CA4FE10C0B5
:1011E000B60180E390E00E944C09A2FE17C0A1FC6A
:1011F00003C088E790E002C088E590E0B6010CC02B
:101200008A2D867859F0A1FE02C08BE201C080E2EF
:10121000A7FC8DE2B60190E00E944C09891438F4D5
:10122000B60180E390E00E944C099A94F7CF8A942B
:10123000F301E80DF11D8081B60190E00E944C0998
:101240008110F5CF222009F442CEB60180E290E071
:101250000E944C092A94F6CFF6018681978102C03C
:101260008FEF9FEF2B96E2E10C94020AFC010590B0
:10127000615070400110D8F7809590958E0F9F1F98
:101280000895FC016150704001900110D8F78095DD
:1012900090958E0F9F1F08950F931F93CF93DF9309
:1012A000FB01238121FD03C08FEF9FEF2CC022FFA4
:1012B00016C046815781248135814217530744F473
:1012C000A081B1819D012F5F3F4F318320838C939B
:1012D000268137812F5F3F4F3783268314C08B01D0
:1012E000EC01FB010084F185E02D0995892BE1F6E5
:1012F000D80116968D919C911797019617969C93FD
:101300008E931697CE01DF91CF911F910F91089583
:10131000FA01AA27283051F1203181F1E8946F9326
:101320006E7F6E5F7F4F8F4F9F4FAF4FB1E03ED0CC
:10133000B4E03CD0670F781F891F9A1FA11D680F6A
:10134000791F8A1F911DA11D6A0F711D811D911D9D
:10135000A11D20D009F468943F912AE0269F112412
:101360003019305D3193DEF6CF010895462F477076
:10137000405D4193B3E00FD0C9F7F6CF462F4F70D1
:10138000405D4A3318F0495D31FD4052419302D02F
:10139000A9F7EACFB4E0A6959795879577956795D5
:1013A000BA95C9F700976105710508959B01AC01D5
:1013B0000A2E06945795479537952795BA95C9F7FC
:1013C000620F731F841F951FA01D08952F923F92D7
:1013D0004F925F926F927F928F929F92AF92BF9245
:1013E000CF92DF92EF92FF920F931F93CF93DF93F1
:1013F000CDB7DEB7CA1BDB0B0FB6F894DEBF0FBE4E
:10140000CDBF09942A88398848885F846E847D849A
:101410008C849B84AA84B984C884DF80EE80FD809C
:101420000C811B81AA81B981CE0FD11D0FB6F89412
:0E143000DEBF0FBECDBFED010895F894FFCFD3
:10143E000000000200000000F80000000000FFFFA6
:10144E00FFFFFFFFFFFF25730A2048656A00546502
:10145E006D70657261747572653A200025660A00BA
:10146E0048756D69646974793A20002E2E2E2E2EE1
:04147E002E2E2E00E0
:00000001FF
